:100000000C942A000C9480470C94B3470C94E64758
:100010000C94393B0C94703B0C9447000C94CF43E8
:100020000C9406440C943D440C94A73B0C94DE3B8A
:100030000C9447000C9400180C9437180C946E180C
:100040000C94E34D0C9447000C9447000C9447002B
:100050000C94470011241FBECFE5D8E0DEBFCDBF12
:1000600012E0A0E6B0E0E6E7F7EC02C005900D92E2
:10007000A033B107D9F712E0A0E3B2E001C01D92AE
:10008000AE34B107E1F70E94F6620C94B9630C94A8
:100090000000A0E3B0E0EFE4F0E00C948263A8E09D
:1000A0004E010894811C911CF401BA2F1192BA954B
:1000B000E9F729833A834B835C836D837E838F8347
:1000C0009887CE010996FC011192AA95E9F7A986B5
:1000D000BA86CB86DC86ED86FE860F87188B298153
:1000E0003A814B815C812DA73EA74FA758AB790180
:1000F0008A018FEF9FEFA0E0B0E0E822F9220A2307
:100100001B231A014424552429853A854B855C8597
:1001100029A73AA74BA75CA759016A01A822B922CF
:10012000CA22DB223A0188249924C601B501A8011C
:1001300097010E94FF626DA37EA38FA398A7C401BD
:10014000B3010E94FF6269A37AA38BA39CA3C6019B
:10015000B501A20191010E94FF627B018C01C401E3
:10016000B3010E94FF625B016C0189A19AA1ABA15E
:10017000BCA18E0D9F1DA01FB11F89A39AA3ABA385
:10018000BCA32DA13EA14FA158A5CA01AA27BB27F8
:1001900029A13AA14BA15CA1280F391F4A1F5B1F5F
:1001A00029A33AA34BA35CA32E153F054007510793
:1001B00040F480E090E0A1E0B0E0A80EB91ECA1EB5
:1001C000DB1E89A19AA1ABA1BCA19D0144275527A3
:1001D0002A0D3B1D4C1D5D1D2D8F3E8F4F8F58A34B
:1001E0006C01BB24AA248DA19EA1AFA1B8A5A070CB
:1001F000B070A80EB91ECA1EDB1EA98EBA8ECB8E99
:10020000DC8E9A8C8B8C7C8C9E8D6F8D78A1FE0100
:10021000719688E0DF011D928A95E9F72D8B9E8B00
:100220006F8B788F2D853E854F8558896DA57EA56E
:100230008FA598A90E94FF627B018C012D813E81D0
:100240004F81588569A57AA58BA59CA50E94FF6260
:10025000E60EF71E081F191F6D897E898F89988DFC
:100260006E0D7F1D801F911F6D8B7E8B8F8B988FE6
:10027000EE892A2D392D482D572D7E2F8F89988D67
:10028000E096E2E10C949E63EF92FF920F93DF936E
:10029000CF93CDB7DEB760970FB6F894DEBF0FBE31
:1002A000CDBFA82F002309F461C07E010894E11C92
:1002B000F11C88E0F70111928A95E9F729833A83C6
:1002C0004B835C836D837E83AF83988780E2801B42
:1002D000E82FFF27E7FDF0954D815E816F817885DE
:1002E000181684F01D861E861F86188A882799276F
:1002F0008E1B9F0B04C076956795579547958A95F9
:10030000D2F728C0202F332727FD3095DB01CA0103
:10031000022E04C0B695A795979587950A94D2F7B3
:100320008D879E87AF87B88B04C0440F551F661F0B
:10033000771FEA95D2F789819A81AB81BC8104C08D
:10034000B695A795979587952A95D2F7482B592B5F
:100350006A2B7B2B49875A876B877C8729853A854F
:100360004B855C856D857E85AF8598898A2F6096E3
:100370000FB6F894DEBF0FBECDBFCF91DF910F91C6
:10038000FF90EF900895EF92FF920F931F937B01E0
:100390008C0120E030E040E05FE40E9454128823AA
:1003A0008CF0C801B70120E030E040E05FE40E943B
:1003B00020100E9412139B01AC012050304040409D
:1003C000504806C0C801B7010E9412139B01AC013E
:1003D000B901CA011F910F91FF90EF900895AEE50A
:1003E000B0E0E5EFF1E00C948263A8E04E010894E0
:1003F000811C911CF4016A2E11926A94E9F72983F9
:100400003A834B835C836D837E838F839887CE0191
:100410000996FC011192AA95E9F7A986BA86CB86BE
:10042000DC86ED86FE860F87188B29843A844B8400
:100430005C84ED84FE840F85188969807A808B80C6
:100440009C806DA67EA68FA698AA6D807E808F80E8
:100450009884E114F1040105110509F0B3C3621495
:1004600073048404950408F03DC100E0201600E008
:10047000300601E0400600E0500688F41FEF211628
:1004800031044104510439F030F048E0E42EF12CFD
:10049000012D112D18C0EE24FF24870114C020E087
:1004A000221620E0320620E0420621E0520630F01B
:1004B00038E1E32EF12C012D112D05C020E1E22EB3
:1004C000F12C012D112DD201C1010E2C04C0B695C5
:1004D000A795979587950A94D2F788599F4FDC0185
:1004E0002C9180E290E0A0E0B0E08E199F09A00B73
:1004F000B10B7C018D01E21AF10801091109E11427
:10050000F10401051105A1F10E2C04C0220C331CCD
:10051000441C551C0A94D2F7A40193010E2C04C06C
:10052000220F331F441F551F0A94D2F780E290E038
:100530008E199F096DA47EA48FA498A804C09694D8
:100540008794779467948A95D2F7622A732A842ACB
:10055000952AADA4BEA4CFA4D8A804C0AA0CBB1CE5
:10056000CC1CDD1CEA94D2F7ADA6BEA6CFA6D8AAB5
:100570006201EE24FF24CDAADEAAEFAAF8AE920112
:1005800081012070307009AF1AAF2BAF3CAFC401AE
:10059000B301A70196010E9445637B018C01C40150
:1005A000B3012DA93EA94FA958AD0E944563C901C9
:1005B000DA013C014D01C401B30129AD3AAD4BADA7
:1005C0005CAD0E94FF629B01AC018701FF24EE2419
:1005D000ADA4BEA4CFA4D8A8C601AA27BB275701A3
:1005E0006801A82AB92ACA2ADB2AA216B306C406B9
:1005F000D506E0F408946108710881089108A20CFE
:10060000B31CC41CD51CA214B304C404D50470F0DC
:10061000A216B306C406D50648F40894610871080A
:1006200081089108A20CB31CC41CD51CA21AB30AE1
:10063000C40AD50AC601B5012DA93EA94FA958ADD6
:100640000E9445637B018C01C601B5012DA93EA91D
:100650004FA958AD0E944563C901DA015C016D01E3
:10066000C601B50129AD3AAD4BAD5CAD0E94FF624C
:100670009B01AC018701FF24EE248DA59EA5AFA5AB
:10068000B8A9A070B070E82AF92A0A2B1B2BE21631
:10069000F30604071507C0F40894A108B108C108BF
:1006A000D108E20CF31C041D151DE214F30404052B
:1006B000150550F0E216F3060407150728F4089410
:1006C000A108B108C108D108D3019927882786015C
:1006D0007501E82AF92A0A2B1B2BE9AAFAAA0BAB07
:1006E0001CABCFC4211431044104510471F461E006
:1006F00070E080E090E020E030E040E050E00E94D8
:100700004563C901DA011C012D0100E0201600E05B
:10071000300601E0400600E0500688F41FEF211685
:1007200031044104510431F028F048E050E060E029
:1007300070E017C040E050E060E070E012C020E0E0
:10074000221620E0320620E0420621E0520628F080
:1007500048E150E060E070E004C040E150E060E05B
:1007600070E0D201C101042E04C0B695A7959795FB
:1007700087950A94D2F788599F4FDC012C91E0E2CB
:10078000EE2EF12C012D112DD801C701841B950BE4
:10079000A60BB70B821B9109A109B1090097A1050E
:1007A000B10561F464015301A218B308C408D50867
:1007B00031E0632E712C812C912C1EC16F968FAF6E
:1007C0006F97082E04C0220C331C441C551C0A943D
:1007D000D2F7EE2DE81B640153010E2E04C0D6940F
:1007E000C794B794A7940A94D2F7A40193016F9683
:1007F0000FAC6F9704C0220F331F441F551F0A947C
:10080000D2F76DA47EA48FA498A80E2E04C096944F
:100810008794779467940A94D2F784017301E22A4B
:10082000F32A042B152BE9A6FAA60BA71CA7320165
:1008300088249924920181012070307021960CAF98
:100840001DAF2EAF3FAF2197C601B501A4019301A3
:100850000E9445637B018C01C601B501A40193018F
:100860000E944563C901DA0125968CAF9DAFAEAFFA
:10087000BFAF2597BC01CD0121962CAD3DAD4EAD4E
:100880005FAD21970E94FF629B01AC018701FF24AD
:10089000EE24A9A4BAA4CBA4DCA4C601AA27BB2732
:1008A0005C016D01AE28BF28C02AD12AA216B3066A
:1008B000C406D50660F525966CAD7DAD8EAD9FADB9
:1008C0002597615070408040904025966CAF7DAF79
:1008D0008EAF9FAF2597A20CB31CC41CD51CA214CD
:1008E000B304C404D50498F0A216B306C406D50612
:1008F00070F4615070408040904025966CAF7DAFA1
:100900008EAF9FAF2597A20CB31CC41CD51CA21A96
:10091000B30AC40AD50AC601B501A40193010E9415
:1009200045637B018C01C601B501A40193010E94BE
:100930004563C901DA013C014D01C401B3012196AF
:100940002CAD3DAD4EAD5FAD21970E94FF629B0186
:10095000AC018701FF24EE2489A59AA5ABA5BCA50F
:10096000A070B07057016801A82AB92ACA2ADB2AE8
:10097000A216B306C406D506E0F40894610871080F
:1009800081089108A20CB31CC41CD51CA214B3048A
:10099000C404D50470F0A216B306C406D50648F404
:1009A00008946108710881089108A20CB31CC41C4A
:1009B000D51C8DA59EA5AFA5B8A96F960FAC6F9756
:1009C00004C0880F991FAA1FBB1F0A94D2F78DA7D6
:1009D0009EA7AFA7B8ABA21AB30AC40AD50A259638
:1009E000ECACFDAC0EAD1FAD2597D701992788273C
:1009F000682A792A8A2A9B2A820122273327299664
:100A00000CAF1DAF2EAF3FAF2997A20191014070EF
:100A100050702D962CAF3DAF4EAF5FAF2D97C601F6
:100A2000B50129962CAD3DAD4EAD5FAD29970E9425
:100A300045637B018C01C601B50129962CAD3DAD06
:100A40004EAD5FAD29970E944563C901DA016196F9
:100A50008CAF9DAFAEAFBFAF6197BC01CD012D96FE
:100A60002CAD3DAD4EAD5FAD2D970E94FF629B0159
:100A7000AC018701FF24EE24ADA4BEA4CFA4D8A866
:100A8000C601AA27BB2757016801A82AB92ACA2A82
:100A9000DB2AA216B306C406D50660F561966CADD6
:100AA0007DAD8EAD9FAD61976150704080409040AC
:100AB00061966CAF7DAF8EAF9FAF6197A20CB31CF8
:100AC000C41CD51CA214B304C404D50498F0A21607
:100AD000B306C406D50670F4615070408040904063
:100AE00061966CAF7DAF8EAF9FAF6197A20CB31CC8
:100AF000C41CD51CA21AB30AC40AD50AC601B50182
:100B000029962CAD3DAD4EAD5FAD29970E94456352
:100B10007B018C01C601B50129962CAD3DAD4EADD2
:100B20005FAD29970E944563C901DA015C016D013F
:100B3000C601B5012D962CAD3DAD4EAD5FAD2D97E7
:100B40000E94FF629B01AC018701FF24EE248DA56A
:100B50009EA5AFA5B8A9A070B070E82AF92A0A2B03
:100B60001B2BE216F30604071507C0F40894A1082E
:100B7000B108C108D108E20CF31C041D151DE214D4
:100B8000F3040405150550F0E216F30604071507F3
:100B900028F40894A108B108C108D1086196ECAC0A
:100BA000FDAC0EAD1FAD6197D7019927882796013F
:100BB0008501082B192B2A2B3B2B09AB1AAB2BAB2E
:100BC0003CAB62C26E147F048006910608F451C2E9
:100BD00020E0E21620E0F20621E0020720E0120702
:100BE00088F43FEFE316F1040105110531F028F018
:100BF00048E050E060E070E017C040E050E060E0A6
:100C000070E012C040E0E41640E0F40640E0040763
:100C100041E0140728F048E150E060E070E004C0D3
:100C200040E150E060E070E0D801C701042E04C04C
:100C3000B695A795979587950A94D2F788599F4FAF
:100C4000DC012C9130E2A32EB12CC12CD12CD60189
:100C5000C501841B950BA60BB70B821B9109A1093B
:100C6000B1090097A105B10589F4E614F704080558
:100C7000190508F4F2C16DA47EA48FA498A862148B
:100C800073048404950408F0E8C1F3C16E968FAF35
:100C90006E97082E04C0EE0CFF1C001F111F0A9453
:100CA000D2F76A2D681BD201C101062E04C0B69589
:100CB000A795979587950A94D2F75C016D01AE28A8
:100CC000BF28C02AD12AADA2BEA2CFA2D8A6720147
:100CD00061016E960FAC6E9704C0CC0CDD1CEE1C4F
:100CE000FF1C0A94D2F7C9A2DAA2EBA2FCA264010B
:100CF0005301062E04C0D694C794B794A7940A94BF
:100D0000D2F7D401C3016E960FAC6E9704C0880F62
:100D1000991FAA1FBB1F0A94D2F7EDA4FEA40FA52A
:100D200018A904C016950795F794E7946A95D2F729
:100D300037014801682A792A8A2A9B2A6D8E7E8E7D
:100D40008F8E98A2EDA0FEA00FA118A538018824CF
:100D50009924980187012070307065960CAF1DAF03
:100D60002EAF3FAF6597C601B501A40193010E9464
:100D700045637B018C01C601B501A40193010E946A
:100D80004563C901DA011C012D01C201B10165965B
:100D90002CAD3DAD4EAD5FAD65970E94FF629B01EE
:100DA000AC018701FF24EE24AD8CBE8CCF8CD8A083
:100DB000C601AA27BB2757016801A82AB92ACA2A4F
:100DC000DB2AA216B306C406D50600F5089421084E
:100DD000310841085108EDA0FEA00FA118A5AE0CE6
:100DE000BF1CC01ED11EAE14BF04C006D10670F0D9
:100DF000A216B306C406D50648F4089421083108A3
:100E000041085108AE0CBF1CC01ED11EA21AB30A65
:100E1000C40AD50AC601B501A40193010E94456325
:100E20007B018C01C601B501A40193010E944563B9
:100E3000C901DA013C014D01C401B30165962CAD35
:100E40003DAD4EAD5FAD65970E94FF629B01AC0169
:100E50008701FF24EE248D8D9E8DAF8DB8A1A070EB
:100E6000B07057016801A82AB92ACA2ADB2AA2163B
:100E7000B306C406D50600F5089461087108810818
:100E800091086DA17EA18FA198A5A60EB71EC81EC0
:100E9000D91EA616B706C806D90670F0A216B30664
:100EA000C406D50648F408946108710881089108C1
:100EB000A60EB71EC81ED91ED601C501821B930BF4
:100EC000A40BB50B898F9A8FAB8FBC8FD10199275B
:100ED000882764015301A82AB92ACA2ADB2AA9AAA9
:100EE000BAAACBAADCAA860175012FEF3FEF40E03A
:100EF00050E0E222F32204231523A6016627772778
:100F00006D964CAF5DAF6EAF7FAF6D97A9A0BAA0E5
:100F1000CBA0DCA06FEF7FEF80E090E0A622B722AD
:100F2000C822D92289A19AA1ABA1BCA11D01442448
:100F30005524C801B701A60195010E94FF62699678
:100F40006CAF7DAF8EAF9FAF6997C801B701A201AB
:100F500091010E94FF623B014C016D966CAD7DAD2D
:100F60008EAD9FAD6D97A60195010E94FF627B013A
:100F70008C016D966CAD7DAD8EAD9FAD6D97A20170
:100F800091010E94FF625B016C01A8019701260D8F
:100F9000371D481D591D69966CAC7DAC8EAC9FAC5D
:100FA0006997C401AA27BB27280F391F4A1F5B1F57
:100FB0002E153F054007510748F4E12CF12C61E064
:100FC000062F112DAE0CBF1CC01ED11ECA01AA27B0
:100FD000BB27BC01CD016A0D7B1D8C1D9D1D698C3D
:100FE0007A8C8B8C9C8C661677068806990640F165
:100FF000661577058805990509F043C0D901992739
:10100000882769962CAD3DAD4EAD5FAD69974070B8
:101010005070820F931FA41FB51F2DA53EA54FA58D
:1010200058A96E960FAC6E9704C0220F331F441F51
:10103000551F0A94D2F7281739074A075B0708F5A6
:1010400009A91AA92BA93CA9015010402040304001
:1010500009AB1AAB2BAB3CAB14C06624772443011D
:1010600021E030E040E050E029AB3AAB4BAB5CAB69
:101070000BC066247724430119AA1AAA1BAA1CAA2A
:1010800003C0662477244301FE01719688E0DF01E6
:101090001D928A95E9F7A9A8BAA8CBA8DCA8A98AC5
:1010A000BA8ACB8ADC8A6D8A7E8A8F8A988E29A931
:1010B0003A894B895C89662D7E898F89988DC25AC1
:1010C000DF4FE2E10C949E63ABE5B0E0EAE6F8E0C6
:1010D0000C948263A8E04E010894811C911CF401D9
:1010E0006A2E11926A94E9F729833A834B835C83D1
:1010F0006D837E838F839887CE010996FC011192C0
:10110000AA95E9F7A986BA86CB86DC86ED86FE86A7
:101110000F87188B29843A844B845C84AD84BE8409
:10112000CF84D88829813A814B815C8169962FAF21
:1011300069976A963FAF6A976B964FAF6B976C96BD
:101140005FAF6C976C966CAC7DAC8EAC9FAC6C97C3
:1011500069AA7AAA8BAA9CAA6D817E818F819885C3
:101160003B014C016DAA7EAA8FAA98AEA114B104CE
:10117000C104D10409F004C3621473048404950407
:1011800008F000C100E0201600E0300601E0400653
:1011900000E0500688F41FEF211631044104510489
:1011A00039F030F088E0E82EF12C012D112D18C017
:1011B000EE24FF24870114C040E0241640E03406EA
:1011C00040E0440641E0540630F0B8E1EB2EF12C4B
:1011D000012D112D05C0A0E1EA2EF12C012D112DBC
:1011E000D201C1010E2C04C0B695A795979587959D
:1011F0000A94D2F788599F4FDC012C9180E290E04D
:10120000A0E0B0E08E199F09A00BB10B5C016D014D
:10121000A21AB108C108D108A9AEBAAECBAEDCAEF5
:10122000A114B104C104D10409F43FC069AD062E74
:1012300004C0220C331C441C551C0A94D2F7A40190
:101240009301062E04C0220F331F441F551F0A941A
:10125000D2F780E290E08A199B096C96CCACDDACA9
:10126000EEACFFAC6C9704C0F694E794D794C794A7
:101270008A95D2F787017601E22AF32A042B152BEF
:10128000EDAAFEAA0FAB18AF6C968CAD9DADAEADBE
:10129000BFAD6C9704C0880F991FAA1FBB1F6A952A
:1012A000D2F789AB9AABABABBCAB320188249924A3
:1012B000B201A1016070707021964CAF5DAF6EAF4E
:1012C0007FAF21976DA97EA98FA998ADA401930145
:1012D0000E9445637B018C016DA97EA98FA998AD01
:1012E000A40193010E944563CA01B90121962CAD66
:1012F0003DAD4EAD5FAD21970E94FF629B01AC01F9
:101300008701FF24EE24A9A8BAA8CBA8DCA8C601AF
:10131000AA27BB2757016801A82AB92ACA2ADB2AAB
:10132000A216B306C406D50690F4A20CB31CC41CC6
:10133000D51CA214B304C404D50448F0A216B30605
:10134000C406D50620F4A20CB31CC41CD51CA21ADA
:10135000B30AC40AD50AC601B501A40193010E94CB
:1013600045637B018C01C601B501A40193010E9474
:101370004563CA01B90121962CAD3DAD4EAD5FADBF
:101380002197BAC1211431044104510471F461E080
:1013900070E080E090E020E030E040E050E00E942B
:1013A0004563C901DA011C012D0100E0201600E0AF
:1013B000300601E0400600E0500688F41FEF2116D9
:1013C00031044104510439F030F068E0E62EF12C8C
:1013D000012D112D18C0EE24FF24870114C040E018
:1013E000241640E0340640E0440641E0540630F064
:1013F00058E1E52EF12C012D112D05C040E1E42E20
:10140000F12C012D112DD201C1010E2C04C0B69575
:10141000A795979587950A94D2F788599F4FDC0135
:101420002C9130E2A32EB12CC12CD12CD601C501B8
:101430008E199F09A00BB10B7C018D01E21AF108F6
:1014400001091109E9AEFAAE0BAF1CAFE114F104CA
:101450000105110539F464015301A218B308C40849
:10146000D508E2C0F9AC6896FFAE68970F2C04C0AF
:10147000220C331C441C551C0A94D2F78A2D8F1958
:1014800064015301082E04C0D694C794B794A7945E
:101490000A94D2F7A401930104C0220F331F441F02
:1014A000551FFA94D2F76C966CAC7DAC8EAC9FACA9
:1014B0006C9704C096948794779467948A95D2F732
:1014C00084017301E22AF32A042B152BEDA6FEA654
:1014D0000FA718AB320188249924B201A1016070D2
:1014E000707025964CAF5DAF6EAF7FAF2597C6018C
:1014F000B501A40193010E9445637B018C01C601E3
:10150000B501A40193010E944563CA01B901259662
:101510002CAD3DAD4EAD5FAD25970E94FF629B01A6
:10152000AC018701FF24EE24ADA4BEA4CFA4D8A8AB
:10153000C601AA27BB275C016D01AE28BF28C02ABF
:10154000D12AA216B306C406D50690F4A20CB31C89
:10155000C41CD51CA214B304C404D50448F0A216BC
:10156000B306C406D50620F4A20CB31CC41CD51CBB
:10157000A21AB30AC40AD50AC601B501A40193018F
:101580000E9445637B018C01C601B501A401930152
:101590000E944563CA01B90125962CAD3DAD4EAD03
:1015A0005FAD25970E94FF629B01AC018701FF247C
:1015B000EE248DA59EA5AFA5B8A9A070B070570167
:1015C0006801A82AB92ACA2ADB2AA216B306C406C9
:1015D000D50690F4A20CB31CC41CD51CA214B304F1
:1015E000C404D50448F0A216B306C406D50620F4F8
:1015F000A20CB31CC41CD51C6C96ECACFDAC0EAD9F
:101600001FAD6C9768960FAC689704C0EE0CFF1C7A
:10161000001F111F0A94D2F7E9AAFAAA0BAB1CAB60
:10162000A21AB30AC40AD50A320188249924B20145
:10163000A1016070707029964CAF5DAF6EAF7FAF47
:101640002997C601B501A40193010E9445637B015E
:101650008C01C601B501A40193010E944563CA0132
:10166000B90129962CAD3DAD4EAD5FAD29970E94D5
:10167000FF629B01AC018701FF24EE24A9A8BAA850
:10168000CBA8DCA8C601AA27BB2757016801A82A56
:10169000B92ACA2ADB2AA216B306C406D50690F4D4
:1016A000A20CB31CC41CD51CA214B304C404D504DE
:1016B00048F0A216B306C406D50620F4A20CB31C4B
:1016C000C41CD51CA21AB30AC40AD50AC601B501A6
:1016D000A40193010E9445637B018C01C601B50101
:1016E000A40193010E944563CA01B90129962CAD5A
:1016F0003DAD4EAD5FAD29970E94FF629B01AC01ED
:101700008701FF24EE2489A99AA9ABA9BCA9A070DE
:10171000B070E82AF92A0A2B1B2BE216F3060407FD
:10172000150790F4E20CF31C041D151DE214F304DC
:101730000405150548F0E216F3060407150720F422
:10174000E20CF31C041D151DE21AF30A040B150B21
:10175000D801C70109AC04C0B695A79597958795A0
:101760000A94D2F7898B9A8BAB8BBC8B1D8A1E8A0D
:101770001F8A188E282F3A894B895C896D890CC382
:101780006A147B048C049D0408F409C300E0A016CD
:1017900000E0B00601E0C00600E0D00688F41FEFCC
:1017A000A116B104C104D10439F030F028E0E22ED2
:1017B000F12C012D112D18C0EE24FF24870114C037
:1017C00040E0A41640E0B40640E0C40641E0D40680
:1017D00030F098E1E92EF12C012D112D05C080E1AA
:1017E000E82EF12C012D112DD601C5010E2C04C0BF
:1017F000B695A795979587950A94D2F788599F4FE4
:10180000DC012C9180E290E0A0E0B0E08E199F090D
:10181000A00BB10B821B9109A109B1090097A10589
:10182000B10509F04FC0A614B704C804D90458F094
:101830006C96ECACFDAC0EAD1FAD6C97E214F304EE
:101840000405150568F16C96ECACFDAC0EAD1FAD52
:101850006C97E218F30804091509A40193012A19E9
:101860003B094C095D09AA24BB2465016C966CAD4B
:101870007DAD8EAD9FAD6C976E157F05800791078E
:1018800028F4B1E0AB2EB12CC12CD12CDA01C90166
:101890008A199B09AC09BD098DAB9EABAFABB8AF44
:1018A000E98AFA8A0B8B1C8B6DA87EA88FA898AC4E
:1018B0006D8A7E8A8F8A988E2E2D3A894B895C8913
:1018C0006DA96AC267968FAF6797A6019501082E2A
:1018D00004C0220F331F441F551F0A94D2F7A0E201
:1018E000AA2EA81A6696AFAE6697D201C10104C0AF
:1018F000B695A79597958795AA94D2F76C017D0127
:10190000C22AD32AE42AF52AC9A6DAA6EBA6FCA69F
:101910008201710167960FAC679704C0EE0CFF1C43
:10192000001F111F0A94D2F7EDA2FEA20FA318A761
:101930006401530166960FAC669704C0D694C794B1
:10194000B794A7940A94D2F7A401930167960FACB9
:10195000679704C0220F331F441F551F0A94D2F704
:101960006C968CAD9DADAEADBFAD6C9766960FAC71
:10197000669704C0B695A795979587950A94D2F770
:101980003C014D01622A732A842A952A69A27AA20F
:101990008BA29CA26C96ECACFDAC0EAD1FAD6C970F
:1019A00067960FAC679704C0EE0CFF1C001F111F59
:1019B0000A94D2F7ED8EFE8E0F8F18A349A55AA573
:1019C0006BA57CA53B0188249924607070702D96CE
:1019D0004CAF5DAF6EAF7FAF2D97C601B501A401CF
:1019E00093010E9445637B018C01C601B501A401EE
:1019F00093010E944563C901DA011C012D01C20156
:101A0000B1012D962CAD3DAD4EAD5FAD2D970E9431
:101A1000FF629B01AC018701FF24EE24A9A0BAA0BC
:101A2000CBA0DCA0C601AA27BB2757016801A82AC2
:101A3000B92ACA2ADB2AA216B306C406D50600F5BF
:101A400008942108310841085108E9A4FAA40BA51B
:101A50001CA5AE0CBF1CC01ED11EAE14BF04C00618
:101A6000D10670F0A216B306C406D50648F4089451
:101A70002108310841085108AE0CBF1CC01ED11E00
:101A8000A21AB30AC40AD50AC601B501A40193017A
:101A90000E9445637B018C01C601B501A40193013D
:101AA0000E944563C901DA013C014D01C401B30143
:101AB0002D962CAD3DAD4EAD5FAD2D970E94FF62D2
:101AC0009B01AC018701FF24EE2489A19AA1ABA15F
:101AD000BCA1A070B07057016801A82AB92ACA2A0F
:101AE000DB2AA216B306C406D50600F508946108E1
:101AF00071088108910869A57AA58BA59CA5A60EF9
:101B0000B71EC81ED91EA616B706C806D90670F09D
:101B1000A216B306C406D50648F4089461087108F5
:101B200081089108A60EB71EC81ED91ED601C50190
:101B3000821B930BA40BB50B898F9A8FAB8FBC8F35
:101B4000D1019927882784017301E82AF92A0A2BF1
:101B50001B2B4FEFA42E4FEFB42EC12CD12CAE2057
:101B6000BF20C022D1227801002711276DA07EA0BE
:101B70008FA098A44FEF5FEF60E070E064227522C1
:101B8000862297228DA19EA1AFA1B8A5BD0188276D
:101B9000992765966CAF7DAF8EAF9FAF6597C601F5
:101BA000B501A40193010E94FF6261966CAF7DAF05
:101BB0008EAF9FAF6197C601B50165962CAD3DAD67
:101BC0004EAD5FAD65970E94FF621B012C01C801FD
:101BD000B701A40193010E94FF625B016C01C8017F
:101BE000B70165962CAD3DAD4EAD5FAD65970E94DA
:101BF000FF627B018C01A6019501220D331D441D5E
:101C0000551D61966CAC7DAC8EAC9FAC6197C401E8
:101C1000AA27BB27280F391F4A1F5B1F2A153B0520
:101C20004C055D0548F4812C912CE1E0AE2EB12CE1
:101C3000E80CF91C0A1D1B1DCA01AA27BB27570166
:101C40006801A80EB91ECA1EDB1EA9013327222770
:101C500061968CAD9DADAEADBFAD6197A070B0701B
:101C6000280F391F4A1F5B1FE98CFA8C0B8D1C8DC6
:101C7000EA14FB040C051D0570F0AE14BF04C00689
:101C8000D10669F56D8D7E8D8F8D98A162177307D2
:101C90008407950720F5DA01C9016DA07EA08FA009
:101CA00098A486199709A809B909E9A4FAA40BA56B
:101CB0001CA5AE18BF08C00AD10AEE24FF24870174
:101CC000281739074A075B0728F421E0E22EF12C98
:101CD000012D112DAE18BF08C00AD10A02C0DA01C9
:101CE000C9016D8C7E8C8F8C98A0681A790A8A0A3B
:101CF0009B0A498D5A8D6B8D7C8D4A195B096C0945
:101D00007D095A016B012224332421016D8D7E8DC2
:101D10008F8D98A1661577058805990528F481E0CF
:101D2000282E312C412C512C86017501E218F30824
:101D300004091509A801970166960FAC669704C0BF
:101D4000220F331F441F551F0A94D2F7D401C30139
:101D500067960FAC679704C0B695A795979587953A
:101D60000A94D2F7282B392B4A2B5B2B298B3A8BE1
:101D70004B8B5C8B67960FAC679704C016950795E5
:101D8000F794E7940A94D2F7ED8AFE8A0F8B188FA6
:101D90003A894B895C896E2D7E898F89988DC55AC9
:101DA000DF4FE2E10C949E63A0E0B0E0EAEDFEE0DC
:101DB0000C948263DC012B01FA019C91923008F4AF
:101DC00039C1EB018881823008F433C1943069F461
:101DD000843009F02FC111969C9111978981981731
:101DE00009F428C1A0E6B0E025C1843009F421C17E
:101DF0008230A9F4923009F01DC19A01AD0188E04A
:101E0000EA010990AE01E90109929E018150C1F7F2
:101E1000E201898111969C918923818308C19230C6
:101E200009F407C112962D903C901397EB018A811B
:101E30009B811496AD90BD90CD90DC901797EC806F
:101E4000FD800E811F819101281B390BB90137FFDD
:101E500004C066277727621B730B603271050CF094
:101E600061C0121613066CF537014801062E04C036
:101E700096948794779467940A94D2F721E030E09F
:101E800040E050E004C0220F331F441F551F6A95E5
:101E9000D2F721503040404050402E213F21402376
:101EA0005123211531054105510521F021E030E094
:101EB00040E050E079018A01E628F728082919292D
:101EC0003CC0232BD1F1260E371E35014601062ECC
:101ED00004C096948794779467940A94D2F721E08B
:101EE00030E040E050E004C0220F331F441F551F74
:101EF0006A95D2F721503040404050402A213B2182
:101F00004C215D21211531054105510521F021E0CC
:101F100030E040E050E059016A01A628B728C828FF
:101F2000D9280BC0821593052CF01C01AA24BB24D0
:101F3000650103C0EE24FF24870111969C91D20114
:101F400011968C91981709F445C0992339F0A8018E
:101F500097012A193B094C095D0906C0A6019501A4
:101F60002E193F09400B510B57FD08C011823382D7
:101F7000228224833583468357831DC081E0818379
:101F80003382228288279927DC01821B930BA40BC2
:101F9000B50B84839583A683B7830DC0220F331FAF
:101FA000441F551F24833583468357838281938141
:101FB0000197938382832481358146815781DA0199
:101FC000C9010197A109B1098F5F9F4FAF4FBF436F
:101FD00028F30BC0918333822282EA0CFB1C0C1D78
:101FE0001D1DE482F5820683178383E080832481AC
:101FF00035814681578157FF1AC0C901AA2797FD2D
:10200000A095BA2F81709070A070B07056954795CA
:1020100037952795822B932BA42BB52B84839583FF
:10202000A683B78382819381019693838283DF01A4
:1020300001C0D201CD01CDB7DEB7E2E10C949E63C1
:10204000A0E2B0E0E6E2F0E10C948E6369837A836B
:102050008B839C832D833E834F835887E9E0EE2E4C
:10206000F12CEC0EFD1ECE010196B7010E94031566
:102070008E010F5E1F4FCE010596B8010E94031519
:102080008A8991E089278A8BC701B801AE01475E32
:102090005F4F0E94D40E0E942E14A096E6E00C948E
:1020A000AA63A0E2B0E0E7E5F0E10C948E636983F7
:1020B0007A838B839C832D833E834F835887F9E0FB
:1020C000EF2EF12CEC0EFD1ECE010196B7010E9401
:1020D00003158E010F5E1F4FCE010596B8010E94B9
:1020E0000315C701B801AE01475E5F4F0E94D40ED1
:1020F0000E942E14A096E6E00C94AA63A0E2B0E041
:10210000E4E8F0E10C94826369837A838B839C8397
:102110002D833E834F835887CE010196BE01675FB2
:102120007F4F0E940315CE010596BE016F5E7F4F63
:102130000E9403159985923088F089898230C8F011
:10214000943019F4823051F404C0843029F4923070
:1021500081F480E690E0C6C0923049F420E09A8590
:102160008A89981321E02A87CE010996BBC0823064
:1021700049F420E09A858A89981321E02A8BCE01C0
:102180004196B0C02D843E844F8458886D887E88E7
:102190008F88988CEE24FF248701AA24BB24650134
:1021A00040E050E060E070E0E0E0F0E0C10181700C
:1021B0009070892BE9F0E60CF71C081D191D9A0197
:1021C000AB012A0D3B1D4C1D5D1D80E090E0A0E0A1
:1021D000B0E0E614F7040805190520F481E090E06A
:1021E000A0E0B0E0BA01A901480F591F6A1F7B1F88
:1021F000AA0CBB1CCC1CDD1C97FE08C081E090E043
:10220000A0E0B0E0A82AB92ACA2ADB2A3196E03237
:10221000F10549F0660C771C881C991C569447946C
:1022200037942794C3CFFA85EA892B893C898B851B
:102230009C85280F391F2E5F3F4F17C0CA01817040
:102240009070892B61F016950795F794E79480E0DC
:1022500090E0A0E0B0E8E82AF92A0A2B1B2B76953B
:102260006795579547952F5F3F4F77FDE7CF0CC098
:10227000440F551F661F771F17FD4160EE0CFF1CB2
:10228000001F111F21503040403090E0590790E06E
:10229000690790E4790760F32B8F3C8FDB01CA015B
:1022A0008F779070A070B07080349105A105B10552
:1022B00061F447FD0AC0E114F1040105110529F09C
:1022C000405C5F4F6F4F7F4F40781A8EFE1711F0C2
:1022D00081E08A8F4D8F5E8F6F8F78A383E0898F27
:1022E000CE0149960E942E14A096E2E10C949E63C2
:1022F000A8E1B0E0EEE7F1E10C948A6369837A83A8
:102300008B839C832D833E834F835887B9E0EB2ECC
:10231000F12CEC0EFD1ECE010196B7010E940315B3
:102320008E010F5E1F4FCE010596B8010E94031566
:102330002985223008F47EC03989323010F4B80182
:102340007CC08A859A8989278A87243011F02230B7
:1023500031F4231709F06EC060E670E06EC03430CF
:1023600039F41D861E861F86188A1C861B8604C0AB
:10237000323021F484E08987B7015FC02B853C852A
:102380008B899C89281B390B3C872B87ED84FE8425
:102390000F851889AD88BE88CF88D88CEA14FB04D5
:1023A0000C051D0540F4EE0CFF1C001F111F2150F1
:1023B00030403C872B8720E030E040E050E080E078
:1023C00090E0A0E0B0E460E070E0EA14FB040C05EB
:1023D0001D0540F0282B392B4A2B5B2BEA18FB08F4
:1023E0000C091D09B695A79597958795EE0CFF1CCE
:1023F000001F111F6F5F7F4F6F31710531F7DA01D9
:10240000C9018F779070A070B07080349105A105DC
:10241000B10561F427FD0AC0E114F10401051105BD
:1024200029F0205C3F4F4F4F5F4F20782D873E872C
:102430004F87588BBE01675F7F4FCB010E942E14E0
:102440006896EAE00C94A663A8E1B0E0EAE2F2E163
:102450000C948E6369837A838B839C832D833E8364
:102460004F83588789E0E82EF12CEC0EFD1ECE013B
:102470000196B7010E9403158E010F5E1F4FCE011A
:102480000596B8010E9403158985823040F089893C
:10249000823028F0C701B8010E947B1501C08FEF80
:1024A0006896E6E00C94AA63A8E1B0E0EAE5F2E100
:1024B0000C948E6369837A838B839C832D833E8304
:1024C0004F83588789E0E82EF12CEC0EFD1ECE01DB
:1024D0000196B7010E9403158E010F5E1F4FCE01BA
:1024E0000596B8010E9403158985823040F08989DC
:1024F000823028F0C701B8010E947B1501C08FEF20
:102500006896E6E00C94AA63A8E1B0E0EAE8F2E19C
:102510000C948E6369837A838B839C832D833E83A3
:102520004F83588789E0E82EF12CEC0EFD1ECE017A
:102530000196B7010E9403158E010F5E1F4FCE0159
:102540000596B8010E9403158985823040F089897B
:10255000823028F0C701B8010E947B1501C081E0DC
:102560006896E6E00C94AA63A8E0B0E0EAEBF2E13A
:102570000C948B639B01AC0183E08983DA01C90170
:102580008827B7FD83959927AA27BB27B82E211541
:1025900031054105510519F482E089833AC0882349
:1025A000A9F0203080E0380780E0480780E858072D
:1025B00029F460E070E080E09FEC30C0EE24FF245E
:1025C0008701E21AF30A040B150B02C079018A0194
:1025D0008EE1C82ED12CDC82CB82ED82FE820F836D
:1025E0001887C801B7010E94DF1301971816190652
:1025F00084F4082E04C0EE0CFF1C001F111F0A9467
:10260000D2F7ED82FE820F831887C81AD90ADC82BE
:10261000CB82BA82CE0101960E942E142896E9E060
:102620000C94A763ACE0B0E0E8E1F3E10C949263B2
:1026300069837A838B839C83CE010196BE016B5F95
:102640007F4F0E9403158D81823061F1823050F1FD
:10265000843021F48E81882351F12EC02F8138855A
:1026600037FD20C06E812F3131051CF06623F9F053
:1026700023C08EE190E0821B930B29853A854B8520
:102680005C8504C056954795379527958A95D2F76E
:102690006623B1F050954095309521953F4F4F4FAF
:1026A0005F4F0EC020E030E040E050E009C02FEF67
:1026B0003FEF4FEF5FE704C020E030E040E050E83C
:1026C000B901CA012C96E2E00C94AE63A8E0B0E038
:1026D000ECE6F3E10C948A637B018C0161157105D2
:1026E0008105910519F482E0898360C083E08983C4
:1026F0008EE1C82ED12CDC82CB82ED82FE820F834C
:102700001887C801B7010E94DF13FC013197F7FF5A
:102710003BC0222733272E1B3F0B57016801022E97
:1027200004C0D694C794B794A7940A94D2F740E013
:1027300050E060E070E081E090E0A0E0B0E004C034
:10274000880F991FAA1FBB1F2A95D2F70197A109CD
:10275000B1098E219F21A023B1230097A105B105C6
:1027600021F041E050E060E070E04A295B296C29EB
:102770007D294D835E836F8378878EE190E08E1B89
:102780009F0B9C838B8312C0309781F00E2E04C068
:10279000EE0CFF1C001F111F0A94D2F7ED82FE827F
:1027A0000F831887CE1ADF0ADC82CB821A82CE0111
:1027B00001960E942E142896EAE00C94A663EF92EC
:1027C000FF920F931F937B018C0180E0E81680E05D
:1027D000F80681E0080780E0180788F48FEFE81614
:1027E000F1040105110531F028F088E090E0A0E047
:1027F000B0E017C080E090E0A0E0B0E012C080E060
:10280000E81680E0F80680E0080781E0180728F065
:1028100088E190E0A0E0B0E004C080E190E0A0E0BA
:10282000B0E020E230E040E050E0281B390B4A0BDA
:102830005B0B04C016950795F794E7948A95D2F739
:10284000F701E859FF4F8081281B310941095109DF
:10285000C9011F910F91FF90EF900895DF92EF92C1
:10286000FF920F931F93FC01E480F580068117818E
:10287000D1808081823048F480E090E0A0E1B0E037
:10288000E82AF92A0A2B1B2BA5C0843009F49FC023
:10289000823021F4EE24FF24870105C0E114F10405
:1028A0000105110519F4E0E0F0E096C06281738142
:1028B0009FEF623879070CF05BC022E83FEF261BE0
:1028C000370B2A3131052CF020E030E040E050E0B9
:1028D0002AC0B801A701022E04C0769567955795C6
:1028E00047950A94D2F781E090E0A0E0B0E004C000
:1028F000880F991FAA1FBB1F2A95D2F70197A1091C
:10290000B1098E219F21A023B1230097A105B10514
:1029100021F081E090E0A0E0B0E09A01AB01282B2B
:10292000392B4A2B5B2BDA01C9018F779070A0708D
:10293000B07080349105A105B10539F427FF09C0B5
:10294000205C3F4F4F4F5F4F04C0215C3F4F4F4FC4
:102950005F4FE0E0F0E02030A0E03A07A0E04A0757
:10296000A0E45A0710F0E1E0F0E079018A0127C005
:102970006038710564F5FB01E158FF4FD801C701CC
:102980008F779070A070B07080349105A105B1056B
:1029900039F4E7FE0DC080E490E0A0E0B0E004C0B0
:1029A0008FE390E0A0E0B0E0E80EF91E0A1F1B1FC5
:1029B00017FF05C016950795F794E794319687E0C1
:1029C00016950795F794E7948A95D1F705C0EE24FC
:1029D000FF248701EFEFF0E06E2F6795662767957C
:1029E000902F9F77D794DD24D7948E2F8695492FEB
:1029F000462B582F5D29B701CA011F910F91FF90F7
:102A0000EF90DF900895FC01DB014081518122812C
:102A1000622F6F7770E0221F2227221F9381892F58
:102A2000880F822B282F30E0991F9927991F119624
:102A30009C93119721153105A9F5411551056105A3
:102A4000710511F482E037C082E89FEF13969C93E2
:102A50008E9312979A01AB0167E0220F331F441F38
:102A6000551F6A95D1F783E08C930DC0220F331F59
:102A7000441F551F12968D919C91139701971396A1
:102A80009C938E931297203080E0380780E04807AF
:102A900080E4580758F314962D933D934D935C931F
:102AA000179708952F3F310579F4411551056105B8
:102AB000710519F484E08C93089564FF03C081E0EC
:102AC0008C9312C01C9210C02F57304013963C9329
:102AD0002E93129783E08C9387E0440F551F661F57
:102AE000771F8A95D1F7706414964D935D936D931B
:102AF0007C93179708951F93DC01FB019C91923002
:102B000008F447C08081823008F443C0943051F407
:102B100011961C91843099F58181682F70E0611BBA
:102B200071093FC0843021F0923031F48230B9F124
:102B30008181882389F12DC011961C9111978230D3
:102B4000F1F081811817D9F412962D913C911397C9
:102B5000828193818217930794F028173907BCF07C
:102B600014968D919D910D90BC91A02D248135815D
:102B700046815781281739074A075B0718F4112344
:102B800041F00AC082179307A407B50740F4112348
:102B900019F061E070E005C06FEF7FEF02C060E008
:102BA00070E0CB011F910895DF93CF930F92CDB7C3
:102BB000DEB781E08983E1E4F0E01082A1E4B0E0D7
:102BC000E1E4F0E0808186608C93198289810F9026
:102BD000CF91DF910895DF93CF9300D00F92CDB7BF
:102BE000DEB78B8381E08A838B81843120F18B81F6
:102BF0008C3108F5E1E4F0E080818983898180618E
:102C00008983898188608983E1E4F0E08981808318
:102C1000E1E4F0E01082A1E4B0E0E1E4F0E08081E2
:102C200086608C93A1E4B0E0E1E4F0E0808188600C
:102C30008C931A8202C082E08A838A810F900F905F
:102C40000F90CF91DF910895DF93CF93CDB7DEB78B
:102C5000A1E4B0E0E1E4F0E0808188608C9380E062
:102C6000CF91DF910895DF93CF9300D0CDB7DEB73A
:102C7000E1E4F0E080818A838A81877089838A8198
:102C800080618A838A8188608A83E1E4F0E08A81B6
:102C90008083E1E4F0E08981808380E00F900F90F1
:102CA000CF91DF910895DF93CF93CDB7DEB7A8958D
:102CB000CF91DF910895DF93CF930F92CDB7DEB719
:102CC00081E08983A0E4B0E0E0E4F0E08081806806
:102CD0008C93A0E4B0E0E0E4F0E0808180788C9315
:102CE000EAE2F0E01082EBE2F0E01082A0E4B0E073
:102CF000E0E4F0E0808180688C93A0E4B0E0E0E460
:102D0000F0E080818F7B8C93A0E4B0E0E0E4F0E021
:102D100080818E7F8C93ABE2B0E0EBE2F0E08081CB
:102D200082608C93ABE2B0E0EBE2F0E080818370F4
:102D30008C93A0E4B0E0E0E4F0E0808180688C93C4
:102D4000A0E4B0E0E0E4F0E0808186608C93A0E451
:102D5000B0E0E0E4F0E0808180688C93A0E4B0E033
:102D6000E0E4F0E080818F7D8C93A0E4B0E0E0E4CB
:102D7000F0E080818F7E8C93A0E4B0E0E0E4F0E0AE
:102D8000808180688C93A0E4B0E0E0E4F0E0808192
:102D9000877F8C93A0E4B0E0E0E4F0E080818F775F
:102DA0008C93A0E4B0E0E0E4F0E080818C93E9E271
:102DB000F0E08FEC8083AAE2B0E0EAE2F0E080810C
:102DC00088608C93AAE2B0E0EAE2F0E08081806162
:102DD0008C9389810F90CF91DF910895DF93CF93EA
:102DE00000D00F92CDB7DEB79B838A8381E08983C1
:102DF0008A819B81009769F0EBE2F0E08081882373
:102E0000DCF7EA81FB81ACE2B0E08C91808319822F
:102E100002C083E0898389810F900F900F90CF913A
:102E2000DF910895DF93CF9300D00F92CDB7DEB737
:102E30009B838A8381E08983EBE2F0E08081829545
:102E400086958770882F90E0817090700097A1F32D
:102E5000ACE2B0E0EA81FB8180818C9319828981A8
:102E60000F900F900F90CF91DF910895DF93CF9344
:102E700000D000D0CDB7DEB79C838B8381E08A83FE
:102E800017C0EBE2F0E08081829586958770882FED
:102E900090E0817090700097A1F3ACE2B0E0EB811C
:102EA000FC8180818C938B819C8101969C838B8398
:102EB000EB81FC818081882321F71A828A810F901F
:102EC0000F900F900F90CF91DF910895DF93CF93E4
:102ED00000D000D0CDB7DEB79C838B8381E08A839E
:102EE0008B819C810097E9F0EBE2F0E08081882300
:102EF000DCF710C0EBE2F0E080818823DCF7AB81E7
:102F0000BC81ECE2F0E080818C938B819C81019606
:102F10009C838B83EB81FC818081882359F71A8203
:102F200002C083E08A838A810F900F900F900F90E8
:102F3000CF91DF910895DF93CF93CDB7DEB7279779
:102F40000FB6F894DEBF0FBECDBF8B837D836C833D
:102F50005F834E8381E08A838C819D81009709F491
:102F600043C0198238C08981282F30E0C901880FF9
:102F7000991F880F991F820F931FFC01E859FE4F7C
:102F800090818B81981721F58981282F30E0C90124
:102F9000880F991F880F991F820F931FFC01E55915
:102FA000FE4F8C819D81918380838981282F30E021
:102FB000C901880F991F880F991F820F931FFC0169
:102FC000E759FE4F8E819F81918380831A8206C0CC
:102FD00089818F5F89838981833028F28981833059
:102FE00029F482E08A8302C083E08A838A8127965B
:102FF0000FB6F894DEBF0FBECDBFCF91DF9108951D
:103000001F920F920FB60F9211242F933F934F935D
:103010005F936F937F938F939F93AF93BF93EF9340
:10302000FF93DF93CF93CDB7DEB780916B01909183
:103030006C01009749F0E0916B01F0916C01809177
:10304000690190916A010995CF91DF91FF91EF910C
:10305000BF91AF919F918F917F916F915F914F91B0
:103060003F912F910F900FBE0F901F9018951F92B8
:103070000F920FB60F9211242F933F934F935F93AC
:103080006F937F938F939F93AF93BF93EF93FF9330
:10309000DF93CF93CDB7DEB780917001909171012E
:1030A000009749F0E0917001F091710180916E01FB
:1030B00090916F010995CF91DF91FF91EF91BF91B1
:1030C000AF919F918F917F916F915F914F913F91C0
:1030D0002F910F900FBE0F901F9018951F920F9277
:1030E0000FB60F9211242F933F934F935F936F93DB
:1030F0007F938F939F93AF93BF93EF93FF93DF9350
:10310000CF93CDB7DEB7809175019091760100978E
:1031100049F0E0917501F0917601809173019091F1
:1031200074010995CF91DF91FF91EF91BF91AF911C
:103130009F918F917F916F915F914F913F912F91CF
:103140000F900FBE0F901F901895DF93CF93CDB7C0
:10315000DEB728970FB6F894DEBF0FBECDBF81E073
:103160008A831982B8C18981282F30E0C901880F6C
:10317000991F880F991F820F931FFC01E658FE4F7D
:103180008081883C09F0C8C0A9E5B0E0E9E5F0E03D
:1031900080818C7F8C93E3E5F0E01082ECE5F0E039
:1031A00010828981282F30E0C901880F991F880F6C
:1031B000991F820F931FFC01E558FE4F90819E01DD
:1031C0002D5F3F4F88EC692FA9010E94821ADC0114
:1031D000CB018093320290933302A0933402B093D8
:1031E0003502A3E5B0E0E3E5F0E090818B81892B27
:1031F0008C93A3E5B0E0E3E5F0E08081482F89817E
:10320000282F30E0C901880F991F880F991F820F5E
:10321000931FFC01E458FE4F8081882F90E0449773
:1032200082959295907F9827807F9827842B8C9306
:103230008981282F30E0C901880F991F880F991FB5
:10324000820F931FFC01E358FE4F80818E3181F085
:103250008981282F30E0C901880F991F880F991F95
:10326000820F931FFC01E358FE4F8081803211F5DD
:10327000A3E5B0E0E3E5F0E08081482F8981282FC5
:1032800030E0C901880F991F880F991F820F931F83
:10329000FC01E358FE4F8081882F90E04E97959572
:1032A0008795880F991F880F991F880F991F842B66
:1032B0008C9302C082E08A838981282F30E0C90183
:1032C000880F991F880F991F820F931FFC01E258E6
:1032D000FE4F8081282F30E038872F838F8198859B
:1032E0008932910531F02F8138852A32310549F034
:1032F00010C0A9E5B0E0E9E5F0E0808181608C9341
:10330000E7C0A9E5B0E0E9E5F0E0808182608C9358
:10331000DFC082E08A83DCC08981282F30E0C901C8
:10332000880F991F880F991F820F931FFC01E65881
:10333000FE4F80818B3C09F0C8C0A9E5B0E0E9E50B
:10334000F0E080818F738C93E5E4F0E01082E3E499
:10335000F0E010828981282F30E0C901880F991F81
:10336000880F991F820F931FFC01E558FE4F908133
:103370009E012D5F3F4F8BEC692FA9010E94821A9D
:10338000DC01CB018093360290933702A093380280
:10339000B0933902A5E4B0E0E5E4F0E090818B81E0
:1033A000892B8C93A5E4B0E0E5E4F0E08081482F20
:1033B0008981282F30E0C901880F991F880F991F34
:1033C000820F931FFC01E458FE4F8081882F90E00C
:1033D000449782959295907F9827807F9827842B99
:1033E0008C938981282F30E0C901880F991F880F9D
:1033F000991F820F931FFC01E358FE4F80818E318D
:1034000081F08981282F30E0C901880F991F880F2A
:10341000991F820F931FFC01E358FE4F8081803279
:1034200011F5A5E4B0E0E5E4F0E08081482F898162
:10343000282F30E0C901880F991F880F991F820F2C
:10344000931FFC01E358FE4F8081882F90E04E9738
:1034500095958795880F991F880F991F880F991F39
:10346000842B8C9302C082E08A838981282F30E0EC
:10347000C901880F991F880F991F820F931FFC01A4
:10348000E258FE4F8081282F30E03E832D838D81CE
:103490009E818932910531F02D813E812A3231059C
:1034A00049F010C0A9E5B0E0E9E5F0E08081806472
:1034B0008C930EC0A9E5B0E0E9E5F0E0808180687A
:1034C0008C9306C082E08A8303C082E08A8309C0AD
:1034D00089818F5F8983909177018981891708F4A9
:1034E00042CE8A81813019F03A813C8301C01C822E
:1034F0008C8128960FB6F894DEBF0FBECDBFCF915A
:10350000DF910895DF93CF93CDB7DEB72A970FB63B
:10351000F894DEBF0FBECDBF8D836E8358874F8377
:1035200080E094E2A4EFB0E089839A83AB83BC830C
:103530008E81282F30E03A87298789859A858E30B9
:10354000910509F481C029853A852F303105ECF4C5
:1035500089859A858B30910509F444C029853A857F
:103560002C30310534F489859A858A30910591F1A2
:10357000F7C029853A852C303105C9F189859A85AE
:103580008D30910509F448C0EBC029853A85213179
:10359000310509F4A7C089859A85823191056CF4BB
:1035A00029853A852F30310509F46BC089859A85C4
:1035B0008031910509F47DC0D3C029853A85223137
:1035C000310509F4ADC089859A858331910509F4E7
:1035D000B7C0C6C0EF81F885108219821A821B829B
:1035E0001C82C2C0EF81F88581E08083BDC0EF817D
:1035F000F88582E0808389819A81AB81BC8168945F
:1036000012F8B695A795979587951694D1F7898363
:103610009A83AB83BC83A8C08D818B3CA9F4EF81D6
:10362000F88583E0808389819A81AB81BC8168942D
:1036300014F8B695A795979587951694D1F7898331
:103640009A83AB83BC8390C089819A81AB81BC8112
:10365000689415F8B695A795979587951694D1F720
:1036600089839A83AB83BC838D818B3C29F4EF8162
:10367000F88584E0808378C0EF81F88583E08083DB
:1036800073C08D818B3CA9F4EF81F88585E0808340
:1036900089819A81AB81BC81689416F8B695A7950B
:1036A000979587951694D1F789839A83AB83BC83CA
:1036B0005BC089819A81AB81BC81892F9A2FAB2F06
:1036C000BB2789839A83AB83BC838D818B3C29F490
:1036D000EF81F88586E0808347C0EF81F88584E03C
:1036E000808342C089819A81AB81BC81072E7AE0B8
:1036F000B695A795979587957A95D1F7702D89837B
:103700009A83AB83BC838D818B3C29F4EF81F88550
:1037100087E0808329C0EF81F88585E0808324C01D
:103720008FEF9FEFAFEFBFEF89839A83AB83BC83AB
:103730008D81883CC9F4EF81F88586E0808314C0D0
:103740008FEF9FEFAFEFBFEF89839A83AB83BC838B
:103750008D81883C49F4EF81F88587E0808304C03F
:1037600019821A821B821C8289819A81AB81BC8159
:10377000BC01CD012A960FB6F894DEBF0FBECDBFB7
:10378000CF91DF910895DF93CF9300D000D00F92B7
:10379000CDB7DEB78A837C836B8381E089838A819E
:1037A000883C79F48091320290913302A0913402E6
:1037B000B0913502EB81FC8180839183A283B38336
:1037C00014C08A818B3C79F4809136029091370243
:1037D000A0913802B0913902EB81FC818083918302
:1037E000A283B38302C082E089838981813019F08A
:1037F00089818D8301C01D828D810F900F900F9064
:103800000F900F90CF91DF910895DF93CF93CDB7B5
:10381000DEB72A970FB6F894DEBF0FBECDBF8887FC
:10382000698781E08E838AE08F83E9E5F0E080811B
:103830008D839E01295F3F4F88856985A9010E947C
:10384000821ADC01CB0189839A83AB83BC83888590
:10385000883C31F5A9E5B0E0E9E5F0E080818C7FB6
:103860008C93A3E5B0E0E3E5F0E08081887F8C9362
:10387000A3E5B0E0E3E5F0E090818F81892B8C93A4
:1038800089819A81AB81BC8180933202909333020B
:10389000A0933402B0933502898580937B012BC0BD
:1038A00088858B3C31F5A9E5B0E0E9E5F0E0808161
:1038B0008F738C93A5E4B0E0E5E4F0E08081887F2D
:1038C0008C93A5E4B0E0E5E4F0E090818F81892B52
:1038D0008C9389819A81AB81BC81809336029093CD
:1038E0003702A0933802B0933902898580938A0108
:1038F00002C082E08E83E9E5F0E08D8180838E81D5
:10390000813019F08E818A8701C01A868A852A96AD
:103910000FB6F894DEBF0FBECDBFCF91DF910895F3
:10392000DF93CF9300D000D00F92CDB7DEB78B835B
:103930007D836C8382E08A83198229C08981282F44
:1039400030E0C901880F991F880F991F820F931FBC
:10395000FC01E658FE4F90818B819817A9F489816C
:10396000282F30E0C901880F991F880F991F820FF7
:10397000931FFC01E558FE4F8081882F90E0EC8179
:10398000FD81918380831A8289818F5F89839091E1
:1039900077018981891790F28A810F900F900F909B
:1039A0000F900F90CF91DF910895DF93CF9300D0C8
:1039B00000D00F92CDB7DEB78B836C8381E08A8312
:1039C000E9E5F0E0808189838B81883C21F5A9E5D8
:1039D000B0E0E9E5F0E080818C7F8C93A3E5B0E076
:1039E000E3E5F0E080818F7C8C93A3E5B0E0E3E534
:1039F000F0E08081282F8C81882F90E04497829579
:103A00009295907F9827807F9827822B8C938C812A
:103A100080937C0129C08B818B3C21F5A9E5B0E026
:103A2000E9E5F0E080818F738C93A5E4B0E0E5E4F4
:103A3000F0E080818F7C8C93A5E4B0E0E5E4F0E0D9
:103A40008081282F8C81882F90E0449782959295D1
:103A5000907F9827807F9827822B8C938C818093EE
:103A60008B0102C082E08A83E9E5F0E089818083EE
:103A70008A81813019F08A818D8301C01D828D81F8
:103A80000F900F900F900F900F90CF91DF910895AE
:103A9000DF93CF9300D000D00F92CDB7DEB78B83EA
:103AA0007D836C8382E08A83198226C08981282FD6
:103AB00030E0C901880F991F880F991F820F931F4B
:103AC000FC01E658FE4F90818B81981791F4898113
:103AD000282F30E0C901880F991F880F991F820F86
:103AE000931FFC01E458FE4F8081EC81FD818083AF
:103AF0001A8289818F5F89839091770189818917E3
:103B0000A8F28A810F900F900F900F900F90CF9195
:103B1000DF910895DF93CF9300D000D00F92CDB7FF
:103B2000DEB78B836C8381E08A838C818E3139F0A0
:103B30008C81803221F08C81813209F069C0E9E505
:103B4000F0E0808189838B81883C61F58C818E31A6
:103B500019F08C81803231F5A9E5B0E0E9E5F0E0BB
:103B600080818C7F8C93A3E5B0E0E3E5F0E0808179
:103B7000877F8C93A3E5B0E0E3E5F0E08081282F18
:103B80008C81882F90E04E9795958795880F991F87
:103B9000880F991F880F991F822B8C938C8180939B
:103BA0007D0131C08B818B3C61F58C818E3119F0A8
:103BB0008C81803231F5A9E5B0E0E9E5F0E0808163
:103BC0008F738C93A5E4B0E0E5E4F0E08081877F1B
:103BD0008C93A5E4B0E0E5E4F0E08081282F8C81AF
:103BE000882F90E04E9795958795880F991F880F9D
:103BF000991F880F991F822B8C938C8180938C0145
:103C000002C082E08A83E9E5F0E08981808302C016
:103C100082E08A838A81813019F08A818D8301C094
:103C20001D828D810F900F900F900F900F90CF916C
:103C3000DF910895DF93CF9300D000D00F92CDB7DE
:103C4000DEB78B837D836C8382E08A83198226C0F2
:103C50008981282F30E0C901880F991F880F991F8B
:103C6000820F931FFC01E658FE4F90818B819817BD
:103C700091F48981282F30E0C901880F991F880F9E
:103C8000991F820F931FFC01E358FE4F8081EC8146
:103C9000FD8180831A8289818F5F8983909177016A
:103CA00089818917A8F28A810F900F900F900F9049
:103CB0000F90CF91DF910895DF93CF9300D000D084
:103CC000CDB7DEB78B8381E08A83EFE5F0E08081BA
:103CD0008983F8948B81883C21F4E2E5F0E010823E
:103CE00009C08B818B3C21F4E4E4F0E0108202C037
:103CF00082E08A83EFE5F0E0898180838A818130E8
:103D000019F08A818C8301C01C828C810F900F90E6
:103D10000F900F90CF91DF910895DF93CF9300D054
:103D200000D000D0CDB7DEB78B837D836C8381E07C
:103D30008A83EFE5F0E080818983F8948B81883C69
:103D400029F4E2E5F0E08C8180830AC08B818B3C12
:103D500029F4E4E4F0E08C81808302C082E08A836D
:103D6000EFE5F0E0898180838A81813019F08A81D2
:103D70008E8301C01E828E8126960FB6F894DEBF18
:103D80000FBECDBFCF91DF910895DF93CF9300D0C9
:103D900000D00F92CDB7DEB78A837C836B8381E03E
:103DA00089838B819C810097B9F08A81883C39F4A2
:103DB000EB81FC81A2E5B0E08C9180830FC08A8109
:103DC0008B3C39F4EB81FC81A4E4B0E08C918083DE
:103DD00005C082E0898302C083E0898389818130C4
:103DE00019F089818D8301C01D828D810F900F9004
:103DF0000F900F900F90CF91DF910895DF93CF93A5
:103E000000D000D00F92CDB7DEB78A837C836B835E
:103E100081E089838A81883C99F480917801282FF8
:103E200030E08B819C812817390750F0ECE5F0E0F9
:103E30008B818083ECE5F0E080818093300218C0B4
:103E40008A818B3C99F480917901282F30E08B8115
:103E50009C812817390750F0E3E4F0E08B818083E0
:103E6000E3E4F0E080818093310202C082E0898344
:103E70008981813019F089818D8301C01D828D81F6
:103E80000F900F900F900F900F90CF91DF910895AA
:103E9000DF93CF9300D000D00F92CDB7DEB78A83E7
:103EA0007C836B8381E089838A81883C31F4EB8158
:103EB000FC818091300280830BC08A818B3C31F47D
:103EC000EB81FC8180913102808302C082E0898392
:103ED0008981813019F089818D8301C01D828D8196
:103EE0000F900F900F900F900F90CF91DF9108954A
:103EF0002F923F924F925F926F927F928F929F92FA
:103F0000AF92BF92CF92DF92EF92FF920F931F93E7
:103F1000DF93CF93CDB7DEB7C154D1400FB6F8943D
:103F2000DEBF0FBECDBF88877A87698781E08F8328
:103F30001E82198224C08981282F30E0C901880F90
:103F4000991F880F991F820F931FFC01E658FE4F9F
:103F500090818885981781F48981282F30E0C901E4
:103F6000880F991F880F991F820F931FFC01E45837
:103F7000FE4F80818E8308C089818F5F89839091F5
:103F8000770189818917B8F28885883C11F00C94F3
:103F90003A2D8091320290913302A0913402B09177
:103FA00035020097A105B10511F40C946F398E818B
:103FB000082F10E0C257DF4F19830883CE58D04036
:103FC000C257DF4F28813981CE58D0402531310585
:103FD00009F45DC4C257DF4F48815981CE58D040A3
:103FE000463151055CF4C257DF4F68817981CE5864
:103FF000D0406431710579F00C94362DC257DF4FF3
:1040000088819981CE58D0408831910514F00C9464
:10401000362D0C94C92889859A855C01CC24DD2431
:10402000EE24FF2487018091320290913302A09107
:104030003402B09135021C012D016624772443011E
:104040002A2D3B2D4C2D5D2D6E2D7F2D802F912FF8
:10405000A22CB32CC42CD52CE62CF72C082D192D12
:104060000E944900222E332E442E552E662E772E86
:10407000882E992EA22CB32CC42CD52CE62CF72CF0
:10408000082D192D2A2D3B2D4C2D5D2D6E2D7F2DAC
:10409000802F912F0F2EF8EEAF2EF02D0F2EF3E084
:1040A000BF2EF02DCC24DD24EE24FF2400E010E010
:1040B0000E94EF01A22EB32EC42ED52EE62EF72E8F
:1040C000082F192FCA57DF4FA882C658D040C957AA
:1040D000DF4FB882C758D040C857DF4FC882C85892
:1040E000D040C757DF4FD882C958D040C657DF4F9E
:1040F000E882CA58D040C557DF4FF882CB58D0402D
:10410000C457DF4F0883CC58D040C357DF4F1883C4
:10411000CD58D0409FEFC057DF4F9883C059D04053
:10412000CF56DF4F1882C159D040CE56DF4F18828C
:10413000C259D040CD56DF4F1882C359D040CC561B
:10414000DF4F1882C459D040CB56DF4F1882C55973
:10415000D040CA56DF4F1882C659D040C956DF4FEB
:104160001882C759D040CA57DF4FE881C658D0409F
:10417000C057DF4FF881C059D040EF0FC856DF4F0E
:10418000E883C859D04001E0C056DF4F0883C05AC9
:10419000D040C856DF4F1881C859D040CA57DF4FAA
:1041A0002881C658D040121728F0C056DF4F188219
:1041B000C05AD040C957DF4F3881C758D040CF567A
:1041C000DF4F4881C159D040340FC756DF4F388385
:1041D000C959D04051E0CF55DF4F5883C15AD04024
:1041E000C756DF4F6881C959D040C957DF4F788122
:1041F000C758D040671728F0CF55DF4F1882C15AF3
:10420000D040C056DF4F8881C05AD040C756DF4FDC
:104210009881C959D040890FCE55DF4F8883C25A43
:10422000D040E1E0CD55DF4FE883C35AD040CE55B2
:10423000DF4FF881C25AD040C756DF4F0881C959B5
:10424000D040F01728F0CD55DF4F1882C35AD04028
:10425000CF55DF4F1881C15AD040CD55DF4F28814F
:10426000C35AD040122BCF55DF4F1883C15AD040CC
:10427000CE55DF4F3881C25AD040C756DF4F388302
:10428000C959D040C857DF4F4881C858D040CE5692
:10429000DF4F5881C259D040450FC656DF4F488383
:1042A000CA59D04061E0CC55DF4F6883C45AD04032
:1042B000C656DF4F7881CA59D040C857DF4F888132
:1042C000C858D040781728F0CC55DF4F1882C45A10
:1042D000D040CF55DF4F9881C15AD040C656DF4FEE
:1042E000E881CA59D0409E0FCB55DF4F9883C55AFD
:1042F000D040F1E0CA55DF4FF883C65AD040CB55C5
:10430000DF4F0881C55AD040C656DF4F1881CA59C1
:10431000D040011728F0CA55DF4F1882C65AD04046
:10432000CC55DF4F2881C45AD040CA55DF4F388161
:10433000C65AD040232BCC55DF4F2883C45AD040D7
:10434000CB55DF4F4881C55AD040C656DF4F488312
:10435000CA59D040C757DF4F5881C958D040CD56B1
:10436000DF4F6881C359D040560FC556DF4F588381
:10437000CB59D04071E0C955DF4F7883C75AD04040
:10438000C556DF4F8881CB59D040C757DF4F988142
:10439000C958D040891728F0C955DF4F1882C75A2D
:1043A000D040CC55DF4FE881C45AD040C556DF4FCE
:1043B000F881CB59D040EF0FC855DF4FE883C85A7A
:1043C000D04001E0C755DF4F0883C95AD040C855D7
:1043D000DF4F1881C85AD040C556DF4F2881CB59CE
:1043E000D040121728F0C755DF4F1882C95AD04065
:1043F000C955DF4F3881C75AD040C755DF4F488174
:10440000C95AD040342BC955DF4F3883C75AD040E2
:10441000C855DF4F5881C85AD040C556DF4F588322
:10442000CB59D040C657DF4F6881CA58D040CC56D0
:10443000DF4F7881C459D040670FC456DF4F68837F
:10444000CC59D04081E0C655DF4F8883CA5AD0404E
:10445000C456DF4F9881CC59D040C657DF4FE88112
:10446000CA58D0409E1728F0C655DF4F1882CA5A46
:10447000D040C955DF4FF881C75AD040C456DF4FEE
:104480000881CC59D040F00FC555DF4FF883CB5A87
:10449000D04011E0C455DF4F1883CC5AD040C555E9
:1044A000DF4F2881CB5AD040C456DF4F3881CC59DA
:1044B000D040231728F0C455DF4F1882CC5AD04083
:1044C000C655DF4F4881CA5AD040C455DF4F588186
:1044D000CC5AD040452BC655DF4F4883CA5AD040EE
:1044E000C555DF4F6881CB5AD040C456DF4F688333
:1044F000CC59D040C557DF4F7881CB58D040CB56F0
:10450000DF4F8881C559D040780FC356DF4F78837D
:10451000CD59D04091E0C355DF4F9883CD5AD0405C
:10452000C356DF4FE881CD59D040C557DF4FF881E2
:10453000CB58D040EF1728F0C355DF4F1882CD5A23
:10454000D040C655DF4F0881CA5AD040C356DF4F0E
:104550001881CD59D040010FC255DF4F0883CE5A84
:10456000D04021E0C155DF4F2883CF5AD040C255FB
:10457000DF4F3881CE5AD040C356DF4F4881CD59E6
:10458000D040341728F0C155DF4F1882CF5AD040A1
:10459000C355DF4F5881CD5AD040C155DF4F688198
:1045A000CF5AD040562BC355DF4F5883CD5AD040F9
:1045B000C255DF4F7881CE5AD040C356DF4F788343
:1045C000CD59D040C457DF4F8881CC58D040CA560F
:1045D000DF4F9881C659D040890FC256DF4F88837C
:1045E000CE59D040E1E0C055DF4FE883C05BD040FA
:1045F000C256DF4FF881CE59D040C457DF4F0881F3
:10460000CC58D040F01728F0C055DF4F1882C05B5F
:10461000D040C355DF4F1881CD5AD040C256DF4F2E
:104620002881CE59D040120FCF54DF4F1883C15B81
:10463000D04031E0CE54DF4F3883C25BD040CF54FE
:10464000DF4F4881C15BD040C256DF4F5881CE5901
:10465000D040451728F0CE54DF4F1882C25BD040BF
:10466000C055DF4F6881C05BD040CE54DF4F7881AA
:10467000C25BD040672BC055DF4F6883C05BD04022
:10468000CF54DF4F8881C15BD040C256DF4F888353
:10469000CE59D040C357DF4F9881CD58D040C9562E
:1046A000DF4FE881C759D0409E0FC156DF4F988336
:1046B000CF59D040C055DF4F8881C05BD040C15634
:1046C000DF4FF881CF59D0408F0FC156DF4F88831D
:1046D000CF59D040C856DF4FA880C859D040C756E0
:1046E000DF4FB880C959D040C656DF4FC880CA597D
:1046F000D040C556DF4FD880CB59D040C456DF4F8D
:10470000E880CC59D040C356DF4FF880CD59D04017
:10471000C256DF4F0881CE59D040C156DF4F1881B5
:10472000CF59D0402A2D3B2D4C2D5D2D6E2D7F2D48
:10473000802F912F08E00E944401A22EB32EC42E98
:10474000D52EE62EF72E082F192F2A2D3B2D4C2D76
:104750005D2D6E2D7F2D802F912F2A833B834C83DF
:104760005D8302E510E0CC57DF4F19830883C458FE
:10477000D04089859A855C01CC24DD24EE24FF2479
:1047800087018091320290913302A0913402B0915E
:1047900035021C012D016624772443012A2D3B2D6F
:1047A0004C2D5D2D6E2D7F2D802F912FA22CB32CA3
:1047B000C42CD52CE62CF72C082D192D0E9449006D
:1047C000222E332E442E552E662E772E882E992E8D
:1047D000A22CB32CC42CD52CE62CF72C082D192D8B
:1047E0002A2D3B2D4C2D5D2D6E2D7F2D802F912F51
:1047F0000F2EF8EEAF2EF02D0F2EF3E0BF2EF02D82
:10480000CC24DD24EE24FF2400E010E00E94EF0120
:10481000A22EB32EC42ED52EE62EF72E082F192F3A
:104820002A2D3B2D4C2D5D2D6E2D7F2D802F912F10
:10483000822F8195CC57DF4FE881F981C458D04051
:1048400080831BC0E8E5F0E08081882F90E08170D4
:1048500090700097B9F38A819B81AC81BD810197EB
:10486000A109B1098A839B83AC83BD83A8E5B0E02D
:10487000E8E5F0E0808181608C938A819B81AC8146
:10488000BD810097A105B105E9F60C946F398985C2
:104890009A855C01CC24DD24EE24FF2487018091DD
:1048A000320290913302A0913402B09135021C0182
:1048B0002D016624772443012A2D3B2D4C2D5D2D9F
:1048C0006E2D7F2D802F912FA22CB32CC42CD52C94
:1048D000E62CF72C082D192D0E944900222E332E8C
:1048E000442E552E662E772E882E992EA22CB32C70
:1048F000C42CD52CE62CF72C082D192D2A2D3B2D58
:104900004C2D5D2D6E2D7F2D802F912F0F2EF0EDD4
:10491000AF2EF02D0F2EF7E0BF2EF02DCC24DD248E
:10492000EE24FF2400E010E00E94EF01A22EB32E3F
:10493000C42ED52EE62EF72E082F192FED96AFAEEA
:10494000ED97EE96BFAEEE97EF96CFAEEF97C158CC
:10495000DF4FD882CF57D040C058DF4FE882C058D1
:10496000D040CF57DF4FF882C158D040CE57DF4FED
:104970000883C258D040CD57DF4F1883C358D0406A
:1049800080913002082F10E020E030E040E050E05D
:1049900060E070E0E5960FAFE597E6961FAFE6970B
:1049A000E7962FAFE797E8963FAFE897E9964FAFC6
:1049B000E997EA965FAFEA97EB966FAFEB97EC96C5
:1049C0007FAFEC97ED961FADED97E5962FADE59790
:1049D000120FCD54DF4F1883C35BD04031E0C55474
:1049E000DF4F3883CB5BD040CD54DF4F4881C35B72
:1049F000D040ED965FADED97451728F0C554DF4FD9
:104A00001882CB5BD040EE966FADEE97E6967FAD09
:104A1000E697670FCC54DF4F6883C45BD04081E0DA
:104A2000C454DF4F8883CC5BD040CC54DF4F988197
:104A3000C45BD040EE96EFADEE979E1728F0C454BD
:104A4000DF4F1882CC5BD040C554DF4FF881CB5B81
:104A5000D040CC54DF4F0881C45BD040F00FC3542A
:104A6000DF4FF883CD5BD04011E0C254DF4F188395
:104A7000CE5BD040C354DF4F2881CD5BD040CC54B7
:104A8000DF4F3881C45BD040231728F0C254DF4F7A
:104A90001882CE5BD040C454DF4F4881CC5BD040FD
:104AA000C254DF4F5881CE5BD040452BC454DF4FFA
:104AB0004883CC5BD040C354DF4F6881CD5BD0408E
:104AC000CC54DF4F6883C45BD040EF967FADEF9747
:104AD000E7968FADE797780FCB54DF4F7883C55BB0
:104AE000D04091E0C154DF4F9883CF5BD040CB548E
:104AF000DF4FE881C55BD040EF96FFADEF97EF1732
:104B000028F0C154DF4F1882CF5BD040C454DF4F30
:104B10000881CC5BD040CB54DF4F1881C55BD040BF
:104B2000010FC054DF4F0883C05CD04021E0CF5359
:104B3000DF4F2883C15CD040C054DF4F3881C05C58
:104B4000D040CB54DF4F4881C55BD040341728F0AC
:104B5000CF53DF4F1882C15CD040C154DF4F588122
:104B6000CF5BD040CF53DF4F6881C15CD040562B24
:104B7000C154DF4F5883CF5BD040C054DF4F7881A2
:104B8000C05CD040CB54DF4F7883C55BD040C15868
:104B9000DF4F8881CF57D040E8969FADE897890FC7
:104BA000CA54DF4F8883C65BD040E1E0CE53DF4F6D
:104BB000E883C25CD040CA54DF4FF881C65BD04066
:104BC000C158DF4F0881CF57D040F01728F0CE539F
:104BD000DF4F1882C25CD040C154DF4F1881CF5BD9
:104BE000D040CA54DF4F2881C65BD040120FCD534E
:104BF000DF4F1883C35CD04031E0CC53DF4F3883A4
:104C0000C45CD040CD53DF4F4881C35CD040CA5410
:104C1000DF4F5881C65BD040451728F0CC53DF4F9B
:104C20001882C45CD040CE53DF4F6881C25CD04054
:104C3000CC53DF4F7881C45CD040672BCE53DF4F1D
:104C40006883C25CD040CD53DF4F8881C35CD040C5
:104C5000CA54DF4F8883C65BD040C058DF4F98816D
:104C6000C058D040E996EFADE9979E0FC954DF4F89
:104C70009883C75BD040F1E0CB53DF4FF883C55C2E
:104C8000D040C954DF4F0881C75BD040C058DF4FC8
:104C90001881C058D040011728F0CB53DF4F18823D
:104CA000C55CD040CE53DF4F2881C25CD040C95490
:104CB000DF4F3881C75BD040230FCA53DF4F2883B3
:104CC000C65CD04041E0C953DF4F4883C75CD04049
:104CD000CA53DF4F5881C65CD040C954DF4F68814A
:104CE000C75BD040561728F0C953DF4F1882C75C06
:104CF000D040CB53DF4F7881C55CD040C953DF4FE4
:104D00008881C75CD040782BCB53DF4F7883C55C5C
:104D1000D040CA53DF4F9881C65CD040C954DF4FA2
:104D20009883C75BD040CF57DF4FE881C158D04050
:104D3000EA96FFADEA97EF0FC854DF4FE883C85BF0
:104D4000D04001E0C853DF4F0883C85CD040C8544E
:104D5000DF4F1881C85BD040CF57DF4F2881C15843
:104D6000D040121728F0C853DF4F1882C85CD040DB
:104D7000CB53DF4F3881C55CD040C854DF4F4881EA
:104D8000C85BD040340FC753DF4F3883C95CD04075
:104D900051E0C653DF4F5883CA5CD040C753DF4F42
:104DA0006881C95CD040C854DF4F7881C85BD0406F
:104DB000671728F0C653DF4F1882CA5CD040C8532B
:104DC000DF4F8881C85CD040C653DF4F9881CA5CF2
:104DD000D040892BC853DF4F8883C85CD040C7536D
:104DE000DF4FE881C95CD040C854DF4FE883C85B1F
:104DF000D040CE57DF4FF881C258D040EB960FAD70
:104E0000EB97F00FC754DF4FF883C95BD04011E038
:104E1000C553DF4F1883CB5CD040C754DF4F288188
:104E2000C95BD040CE57DF4F3881C258D0402317DE
:104E300028F0C553DF4F1882CB5CD040C853DF4FFA
:104E40004881C85CD040C754DF4F5881C95BD0400F
:104E5000450FC453DF4F4883CC5CD04061E0C3535F
:104E6000DF4F6883CD5CD040C453DF4F7881CC5C8A
:104E7000D040C754DF4F8881C95BD040781728F0F5
:104E8000C353DF4F1882CD5CD040C553DF4F9881AC
:104E9000CB5CD040C353DF4FE881CD5CD0409E2B2C
:104EA000C553DF4F9883CB5CD040C453DF4FF881AC
:104EB000CC5CD040C754DF4FF883C95BD040CD579E
:104EC000DF4F0881C358D040EC961FADEC97010F1F
:104ED000C654DF4F0883CA5BD040C553DF4F88817B
:104EE000CB5CD040C654DF4F2881CA5BD040820FD4
:104EF000C654DF4F8883CA5BD040CD54DF4FA880B3
:104F0000C35BD040CC54DF4FB880C45BD040CB549F
:104F1000DF4FC880C55BD040CA54DF4FD880C65B26
:104F2000D040C954DF4FE880C75BD040C854DF4F42
:104F3000F880C85BD040C754DF4F0881C95BD040C0
:104F4000C654DF4F1881CA5BD04080913002882F51
:104F500090E001961C0144245524662477244301E3
:104F60002A2D3B2D4C2D5D2D6E2D7F2D802F912FC9
:104F7000A22CB32CC42CD52CE62CF72C082D192DE3
:104F80000E94EF01A22EB32EC42ED52EE62EF72EB0
:104F9000082F192F2A2D3B2D4C2D5D2D6E2D7F2D89
:104FA000802F912F2A833B834C835D8342E550E021
:104FB000E4965FAF4EAFE49750913002E2965FAF58
:104FC000E29789859A855C01CC24DD24EE24FF24B8
:104FD00087018091320290913302A0913402B09106
:104FE00035021C012D016624772443012A2D3B2D17
:104FF0004C2D5D2D6E2D7F2D802F912FA22CB32C4B
:10500000C42CD52CE62CF72C082D192D0E94490014
:10501000222E332E442E552E662E772E882E992E34
:10502000A22CB32CC42CD52CE62CF72C082D192D32
:105030002A2D3B2D4C2D5D2D6E2D7F2D802F912FF8
:105040000F2EF0EDAF2EF02D0F2EF7E0BF2EF02D2E
:10505000CC24DD24EE24FF2400E010E00E94EF01C8
:10506000A22EB32EC42ED52EE62EF72E082F192FE2
:105070002A2C3B2C4C2C5D2C6E2C7F2C802E912EC0
:1050800080913002882F90E001968C0120E030E082
:1050900040E050E060E070E0AA960FAFAA97AB96B0
:1050A0001FAFAB97AC962FAFAC97AD963FAFAD9718
:1050B000AE964FAFAE97AF965FAFAF97E0966FAF3C
:1050C000E097E1967FAFE197222D332D442D552DAA
:1050D000662D772D882D992DAA96AFACAA97AB9601
:1050E000BFACAB97AC96CFACAC97AD96DFACAD9701
:1050F000AE96EFACAE97AF96FFACAF97E0960FAD24
:10510000E097E1961FADE1970E946408A22EB32EAE
:10511000C42ED52EE62EF72E082F192F2A2D3B2D23
:105120004C2D5D2D6E2D7F2D802F912F822FE2969D
:105130001FADE297181B812F8F5FE496EEADFFAD98
:10514000E49780831CC0E8E5F0E080818695882F95
:1051500090E0817090700097B1F38A819B81AC815F
:10516000BD810197A109B1098A839B83AC83BD836B
:10517000A8E5B0E0E8E5F0E0808182608C938A8168
:105180009B81AC81BD810097A105B105E1F60C942E
:105190006F3989859A855C01CC24DD24EE24FF24B7
:1051A00087018091320290913302A0913402B09134
:1051B00035021C012D016624772443012A2D3B2D45
:1051C0004C2D5D2D6E2D7F2D802F912FA22CB32C79
:1051D000C42CD52CE62CF72C082D192D0E94490043
:1051E000222E332E442E552E662E772E882E992E63
:1051F000A22CB32CC42CD52CE62CF72C082D192D61
:105200002A2D3B2D4C2D5D2D6E2D7F2D802F912F26
:105210000F2EF8EEAF2EF02D0F2EF3E0BF2EF02D57
:10522000CC24DD24EE24FF2400E010E00E94EF01F6
:10523000A22EB32EC42ED52EE62EF72E082F192F10
:10524000A296AFAEA297A396BFAEA397A496CFAEF9
:10525000A497A596DFAEA597A696EFAEA697A796BC
:10526000FFAEA797A8960FAFA897A9961FAFA997CB
:1052700080913002082F10E020E030E040E050E064
:1052800060E070E06A960FAF6A976B961FAF6B97FE
:105290006C962FAF6C976D963FAF6D976E964FAF34
:1052A0006E976F965FAF6F97A0966FAFA097A1961E
:1052B0007FAFA197A2961FADA2976A962FAD6A976E
:1052C000120FC253DF4F1883CE5CD04031E0CA5278
:1052D000DF4F3883C65DD040C253DF4F4881CE5C7C
:1052E000D040A2965FADA297451728F0CA52DF4F73
:1052F0001882C65DD040A3966FADA3976B967FAD25
:105300006B97670FC153DF4F6883CF5CD04081E05C
:10531000C952DF4F8883C75DD040C153DF4F9881AA
:10532000CF5CD040A396EFADA3979E1728F0C9524B
:10533000DF4F1882C75DD040CA52DF4FF881C65D8B
:10534000D040C153DF4F0881CF5CD040F00FC8522E
:10535000DF4FF883C85DD04011E0C752DF4F18839C
:10536000C95DD040C852DF4F2881C85DD040C153CD
:10537000DF4F3881CF5CD040231728F0C752DF4F72
:105380001882C95DD040C952DF4F4881C75DD04007
:10539000C752DF4F5881C95DD040452BC952DF4FFE
:1053A0004883C75DD040C852DF4F6881C85DD04098
:1053B000C153DF4F6883CF5CD040A4967FADA497E4
:1053C0006C968FAD6C97780FC053DF4F7883C05DBC
:1053D000D04091E0C652DF4F9883CA5DD040C053A1
:1053E000DF4FE881C05DD040A496FFADA497EF17D2
:1053F00028F0C652DF4F1882CA5DD040C952DF4F35
:105400000881C75DD040C053DF4F1881C05DD040D8
:10541000010FC552DF4F0883CB5DD04021E0C4525D
:10542000DF4F2883CC5DD040C552DF4F3881CB5D44
:10543000D040C053DF4F4881C05DD040341728F0C2
:10544000C452DF4F1882CC5DD040C652DF4F588126
:10545000CA5DD040C452DF4F6881CC5DD040562B2E
:10546000C652DF4F5883CA5DD040C552DF4F7881A6
:10547000CB5DD040C053DF4F7883C05DD040A59650
:105480008FADA5976D969FAD6D97890FCF52DF4F6A
:105490008883C15DD040E1E0C352DF4FE883CD5D3A
:1054A000D040CF52DF4FF881C15DD040A5960FADFF
:1054B000A597F01728F0C352DF4F1882CD5DD0407A
:1054C000C652DF4F1881CA5DD040CF52DF4F2881CE
:1054D000C15DD040120FC252DF4F1883CE5DD04065
:1054E00031E0C152DF4F3883CF5DD040C252DF4F31
:1054F0004881CE5DD040CF52DF4F5881C15DD04052
:10550000451728F0C152DF4F1882CF5DD040C352FB
:10551000DF4F6881CD5DD040C152DF4F7881CF5DD4
:10552000D040672BC352DF4F6883CD5DD040C2525D
:10553000DF4F8881CE5DD040CF52DF4F8883C15D81
:10554000D040A6969FADA6976E96EFAD6E979E0F34
:10555000CE52DF4F9883C25DD040F1E0C052DF4FA2
:10556000F883C05ED040CE52DF4F0881C25DD0408C
:10557000A6961FADA697011728F0C052DF4F1882DC
:10558000C05ED040C352DF4F2881CD5DD040CE52A7
:10559000DF4F3881C25DD040230FCF51DF4F2883CA
:1055A000C15ED04041E0CE51DF4F4883C25ED04063
:1055B000CF51DF4F5881C15ED040CE52DF4F68815E
:1055C000C25DD040561728F0CE51DF4F1882C25E20
:1055D000D040C052DF4F7881C05ED040CE51DF4F07
:1055E0008881C25ED040782BC052DF4F7883C05E86
:1055F000D040CF51DF4F9881C15ED040CE52DF4FB7
:105600009883C25DD040A796EFADA7976F96FFAD88
:105610006F97EF0FCD52DF4FE883C35DD04001E0BD
:10562000CD51DF4F0883C35ED040CD52DF4F18818C
:10563000C35DD040A7962FADA797121728F0CD5184
:10564000DF4F1882C35ED040C052DF4F3881C05E4A
:10565000D040CD52DF4F4881C35DD040340FCC5194
:10566000DF4F3883C45ED04051E0CB51DF4F5883C9
:10567000C55ED040CC51DF4F6881C45ED040CD5272
:10568000DF4F7881C35DD040671728F0CB51DF4FE3
:105690001882C55ED040CD51DF4F8881C35ED040B7
:1056A000CB51DF4F9881C55ED040892BCD51DF4F64
:1056B0008883C35ED040CC51DF4FE881C45ED040C8
:1056C000CD52DF4FE883C35DD040A896FFADA897C9
:1056D000A0960FADA097F00FCC52DF4FF883C45DBA
:1056E000D04011E0CA51DF4F1883C65ED040CC5283
:1056F000DF4F2881C45DD040A8963FADA8972317FF
:1057000028F0CA51DF4F1882C65ED040CD51DF4F1E
:105710004881C35ED040CC52DF4F5881C45DD04039
:10572000450FC951DF4F4883C75ED04061E0C85183
:10573000DF4F6883C85ED040C951DF4F7881C75EB4
:10574000D040CC52DF4F8881C45DD040781728F01C
:10575000C851DF4F1882C85ED040CA51DF4F9881D0
:10576000C65ED040C851DF4FE881C85ED0409E2B56
:10577000CA51DF4F9883C65ED040C951DF4FF881D0
:10578000C75ED040CC52DF4FF883C45DD040A996AD
:105790000FADA997A1961FADA197010FCB52DF4F77
:1057A0000883C55DD040CA51DF4F8881C65ED040B6
:1057B000CB52DF4F2881C55DD040820FCB52DF4FE7
:1057C0008883C55DD040C253DF4FA880CE5CD040F7
:1057D000C153DF4FB880CF5CD040C053DF4FC8808B
:1057E000C05DD040CF52DF4FD880C15DD040CE5297
:1057F000DF4FE880C25DD040CD52DF4FF880C35DFF
:10580000D040CC52DF4F0881C45DD040CB52DF4F37
:105810001881C55DD04080913002882F90E09C01B6
:105820002F5F3F4FC901990F880B982F1901482E00
:10583000582E682E782E882E982E2A2D3B2D4C2DF2
:105840005D2D6E2D7F2D802F912FA22CB32CC42C7B
:10585000D52CE62CF72C082D192D0E94EF01A22E35
:10586000B32EC42ED52EE62EF72E082F192F2A2D53
:105870003B2D4C2D5D2D6E2D7F2D802F912F2A835A
:105880003B834C835D8342E550E069965FAF4EAF4A
:1058900069975091300267965FAF679789859A85BF
:1058A0005C01CC24DD24EE24FF24870180913202A8
:1058B00090913302A0913402B09135021C012D0168
:1058C0006624772443012A2D3B2D4C2D5D2D6E2D12
:1058D0007F2D802F912FA22CB32CC42CD52CE62CFD
:1058E000F72C082D192D0E944900222E332E442E0C
:1058F000552E662E772E882E992EA22CB32CC42CD2
:10590000D52CE62CF72C082D192D2A2D3B2D4C2DAE
:105910005D2D6E2D7F2D802F912F0F2EF8EEAF2E47
:10592000F02D0F2EF3E0BF2EF02DCC24DD24EE243D
:10593000FF2400E010E00E94EF01A22EB32EC42E3F
:10594000D52EE62EF72E082F192F2A2C3B2C4C2C67
:105950005D2C6E2C7F2C802E912E80913002882F12
:1059600090E001968C0120E030E040E050E060E003
:1059700070E02F960FAF2F9760961FAF60976196DC
:105980002FAF619762963FAF629763964FAF639771
:1059900064965FAF649765966FAF659766967FAFC5
:1059A0006697222D332D442D552D662D772D882D6C
:1059B000992D2F96AFAC2F976096BFAC60976196EC
:1059C000CFAC61976296DFAC62976396EFAC63975A
:1059D0006496FFAC649765960FAD659766961FADAC
:1059E00066970E946408A22EB32EC42ED52EE62EF2
:1059F000F72E082F192F2A2D3B2D4C2D5D2D6E2DA6
:105A00007F2D802F912F822F67961FAD6797181BD0
:105A1000812F8F5F6996EEADFFAD699780831CC0C3
:105A2000E8E5F0E080818695882F90E081709070A5
:105A30000097B1F38A819B81AC81BD810197A10957
:105A4000B1098A839B83AC83BD83A8E5B0E0E8E518
:105A5000F0E0808182608C938A819B81AC81BD81E2
:105A60000097A105B105E1F60C946F3982E08F83B0
:105A70000C946F3988858B3C11F00C946D398091B2
:105A8000360290913702A0913802B0913902009706
:105A9000A105B10511F40C946F398E81082F10E027
:105AA0002E961FAF0EAF2E972E962EAD3FAD2E9792
:105AB0002531310509F429C42E964EAD5FAD2E97E0
:105AC000463151054CF42E966EAD7FAD2E97643164
:105AD000710569F00C946A392E968EAD9FAD2E97A4
